:1003C7003F065B4F666D7D077F6F777C395E79717E
:0B03D7005C3840FEFDFBF7EFDFBF7F4E
:09040D00012200012D0001210073
:10039C00E4F580D2A2C2A2E5212F9003DA93F58076
:1003AC00D2A3C2A374232521F8E6F580D2A2C2A25F
:0A03BC000521E521B50503E4F52154
:0103C6002214
:0A040300438901D2AFD2A9D28C22A6
:03000B0002036F7E
:10036F00C0E0C083C082C0D075D000C000C005C03F
:10037F0007758CF8758A307D08E4FF12039CD0074F
:0D038F00D005D000D0D0D082D083D0E03295
:100106007590F0E59064F070030201B47F0A120066
:100116000EE59064F070030201B47590FEE59064FC
:10012600FE601CE59054F0F558240EF558E590B4A1
:10013600FEFB7F0A12000EE590B4FEFBAF58227557
:1001460090FDE59064FD601CE59054F0F558240D93
:10015600F558E590B4FDFB7F0A12000EE590B4FD5C
:10016600FBAF58227590FBE59064FB601CE590544C
:10017600F0F558240BF558E590B4FBFB7F0A120006
:100186000EE590B4FBFBAF58227590F7E59064F747
:10019600601CE59054F0F5582407F558E590B4F73F
:1001A600FB7F0A12000EE590B4F7FBAF58227FFFE3
:0101B6002226
:1002AF00120106EF120289030B7703027B02F67D20
:1002BF0002EA7E030EB70305BB02F9BD02EDBE03D2
:1002CF000BD70308DB02FCDD02F0DE030BE7030BA9
:1002DF00EB02FFED02F3EE0000030B7F01227F0222
:1002EF00227F03227F63227F04227F05227F062243
:1002FF007F65227F07227F08227F09227FFF227FCF
:02030F000022CA
:03041700DFFE22E3
:10000E00AE07AF061EEF600C7FF51204177FF512D8
:05001E00041780EE2232
:060311008B588A59895A3D
:10031700E4FFAB5BAA5CA95D8F8275830012025C68
:10032700FEAB58AA59A95A8F8275830012025C6ED8
:090337006002C3220FBF04DAD3F7
:01034000229A
:080003008F993099FDC299228A
:1003E200120243FF600C120003740129F9E43AFA85
:0303F20080EE2278
:0300230002034194
:0B034100C0E0C0D075D000C000C007B5
:10034C00309817C298AF998F99742E2522F8A6076A
:0A035C000522E522B4140375220007
:09036600D007D000D0D0D0E03265
:0E03F500759850438920758DFDD28ED2AF22AF
:10002600D2011204031203F5E4F54F7450254FF87C
:10003600E6FF7423254FF8A607054FE54FB406EBF8
:10004600E4F54E1202AFEFF46042E54EC39406505B
:1000560039EF2430FE7442254EF8A606EF9003C70A
:1000660093FE7450254EF8A606E4F54FE54FD3955A
:100076004E50177450254FF8E6FEC37407954E256B
:100086004F2423F8A606054F80E2054EBF6313E40E
:10009600F54EF54F7423254FF8E4F6054FE54FB4BA
:1000A60008F2EF6465709CF54EF54F7423254FF802
:1000B600E4F6054FE54FB408F27B007A0079421268
:1000C60003E22001117F1412000E9003D8E493F589
:1000D6002AD201020049755B00755C00755D487B9C
:1000E600007A007942120311500C9003D7E493F57D
:1000F6002AC2010200499003D9E493F52A02004975
:030000000201B743
:0C01B700787FE4F6D8FD75815D0201FE42
:10024300BB010689828A83E0225002E722BBFE02B9
:09025300E32289828A83E49322EC
:10025C00BB010CE58229F582E5833AF583E0225057
:10026C0006E92582F8E622BBFE06E92582F8E222A1
:0D027C00E58229F582E5833AF583E49322BB
:10028900D083D082F8E4937012740193700DA3A304
:1002990093F8740193F5828883E473740293686018
:0602A900EFA3A3A380DF18
:1001C300020026E493A3F8E493A34003F68001F22C
:1001D30008DFF48029E493A3F85407240CC8C3333D
:1001E300C4540F4420C8834004F456800146F6DF0C
:1001F300E4800B010204081020408090040DE47E8B
:10020300019360BCA3FF543F30E509541FFEE49300
:10021300A360010ECF54C025E060A840B8E493A3C7
:10022300FAE493A3F8E493A3C8C582C8CAC583CAF2
:10023300F0A3C8C582C8CAC583CADFE9DEE780BEAA
:0104160000E5
:00000001FF
