:1003C90031003F065B4F666D7D077F6F777C395E35
:0D03D90079715C3840FEFDFBF7EFDFBF7F60
:09041100012200012D000121006F
:10039E00E4F580D2A2C2A2E5212F9003DE93F58070
:1003AE00D2A3C2A374232521F8E6F580D2A2C2A25D
:0A03BE000521E521B50503E4F52152
:0103C8002212
:0A040700438901D2AFD2A9D28C22A2
:03000B000203717C
:10037100C0E0C083C082C0D075D000C000C005C03D
:1003810007758CF8758A307D08E4FF12039ED0074B
:0D039100D005D000D0D0D082D083D0E03293
:100108007590F0E59064F070030201B67F0A120062
:100118000EE59064F070030201B67590FEE59064F8
:10012800FE601CE59054F0F558240EF558E590B49F
:10013800FEFB7F0A12000EE590B4FEFBAF58227555
:1001480090FDE59064FD601CE59054F0F558240D91
:10015800F558E590B4FDFB7F0A12000EE590B4FD5A
:10016800FBAF58227590FBE59064FB601CE590544A
:10017800F0F558240BF558E590B4FBFB7F0A120004
:100188000EE590B4FBFBAF58227590F7E59064F745
:10019800601CE59054F0F5582407F558E590B4F73D
:1001A800FB7F0A12000EE590B4F7FBAF58227FFFE1
:0101B8002224
:1002B100120108EF12028B030D7703047B02F87D14
:1002C10002EC7E0310B70307BB02FBBD02EFBE03C6
:1002D1000DD7030ADB02FEDD02F2DE030DE7030D9B
:1002E100EB0301ED02F5EE0000030D7F01227F0219
:1002F100227F03227F63227F04227F05227F062241
:100301007F65227F07227F08227F09227FFF227FCC
:020311000022C8
:03041B00DFFE22DF
:10000E00AE07AF061EEF600C7FF512041B7FF512D4
:05001E00041B80EE222E
:060313008B588A59895A3B
:10031900E4FFAB5BAA5CA95D8F8275830012025E64
:10032900FEAB58AA59A95A8F8275830012025E6ED4
:090339006002C3220FBF04DAD3F5
:010342002298
:080003008F993099FDC299228A
:1003E600120245FF600C120003740129F9E43AFA7F
:0303F60080EE2274
:0300230002034392
:0B034300C0E0C0D075D000C000C007B3
:10034E00309817C298AF998F99742E2522F8A60768
:0A035E000522E522B4140375220005
:09036800D007D000D0D0D0E03263
:0E03F900759850438920758DFDD28ED2AF22AB
:10002600D201120407E4F54F7450254FF8E6FF7429
:1000360023254FF8A607054FE54FB406EBE4F54E2A
:100046007BFF7A0379C91203E61202B1EFF4603E30
:10005600E54EC3940650357442254EF8A607EF9038
:1000660003CB93FE7450254EF8A606E4F54FE54FF4
:10007600D3954E50177450254FF8E6FEC374079576
:100086004E254F2423F8A606054F80E2054EBF6392
:1000960013E4F54EF54F7423254FF8E4F6054FE5C6
:1000A6004FB408F2EF64657097F54EF54F7423254B
:1000B6004FF8E4F6054FE54FB408F27B007A007975
:1000C600421203E62001117F1412000E9003DCE4B5
:1000D60093F52AD201020046755B00755C00755DDA
:1000E600487B007A007942120313500C9003DBE43C
:1000F60093F52AC2010200469003DDE493F52A0235
:020106000046B1
:030000000201B941
:0C01B900787FE4F6D8FD75815D0202003D
:10024500BB010689828A83E0225002E722BBFE02B7
:09025500E32289828A83E49322EA
:10025E00BB010CE58229F582E5833AF583E0225055
:10026E0006E92582F8E622BBFE06E92582F8E2229F
:0D027E00E58229F582E5833AF583E49322B9
:10028B00D083D082F8E4937012740193700DA3A302
:10029B0093F8740193F5828883E473740293686016
:0602AB00EFA3A3A380DF16
:1001C500020026E493A3F8E493A34003F68001F22A
:1001D50008DFF48029E493A3F85407240CC8C3333B
:1001E500C4540F4420C8834004F456800146F6DF0A
:1001F500E4800B0102040810204080900411E47E85
:10020500019360BCA3FF543F30E509541FFEE493FE
:10021500A360010ECF54C025E060A840B8E493A3C5
:10022500FAE493A3F8E493A3C8C582C8CAC583CAF0
:10023500F0A3C8C582C8CAC583CADFE9DEE780BEA8
:01041A0000E1
:00000001FF
