:06012200010800010900C4
:0E010C00759850438920758DFDD28ED2AF229A
:1000030012010CD2ACE508650960FA740A2509F8F7
:10001300E6FF0509E509B41403E4F5098F8080E5DB
:08011A008F993099FDC2992272
:1000F9001200E0FF600C12011A740129F9E43AFABE
:0301090080EE2263
:030023000200B226
:0B00B200C0E0C0D075D000C000C00747
:1000BD00309817C298AF998F99740A2508F8A6073A
:0A00CD000508E508B41403750800E7
:0900D700D007D000D0D0D0E032F7
:03000000020026D5
:0C002600787FE4F6D8FD75812102006DA2
:1000E000BB010689828A83E0225002E722BBFE021E
:0900F000E32289828A83E4932251
:10003200020003E493A3F8E493A34003F68001F2E1
:1000420008DFF48029E493A3F85407240CC8C333CF
:10005200C4540F4420C8834004F456800146F6DF9E
:10006200E4800B0102040810204080900122E47E0B
:10007200019360BCA3FF543F30E509541FFEE49393
:10008200A360010ECF54C025E060A840B8E493A35A
:10009200FAE493A3F8E493A3C8C582C8CAC583CA85
:1000A200F0A3C8C582C8CAC583CADFE9DEE780BE3D
:0101280000D6
:00000001FF
